{
  "_format": "hh-sol-artifact-1",
  "contractName": "MintManager",
  "sourceName": "contracts/sales/v1/MintManager.sol",
  "abi": [
    {
      "inputs": [
        {
          "internalType": "uint64",
          "name": "_subscriptionId",
          "type": "uint64"
        },
        {
          "internalType": "address",
          "name": "_vrfCoordinator",
          "type": "address"
        },
        {
          "internalType": "bytes32",
          "name": "_keyHash",
          "type": "bytes32"
        }
      ],
      "stateMutability": "nonpayable",
      "type": "constructor"
    },
    {
      "inputs": [
        {
          "internalType": "address",
          "name": "have",
          "type": "address"
        },
        {
          "internalType": "address",
          "name": "want",
          "type": "address"
        }
      ],
      "name": "OnlyCoordinatorCanFulfill",
      "type": "error"
    },
    {
      "anonymous": false,
      "inputs": [
        {
          "indexed": false,
          "internalType": "string",
          "name": "someString",
          "type": "string"
        }
      ],
      "name": "Log",
      "type": "event"
    },
    {
      "anonymous": false,
      "inputs": [
        {
          "indexed": false,
          "internalType": "uint256",
          "name": "requestId",
          "type": "uint256"
        },
        {
          "indexed": false,
          "internalType": "address",
          "name": "owner",
          "type": "address"
        },
        {
          "indexed": false,
          "internalType": "uint256[]",
          "name": "randomWords",
          "type": "uint256[]"
        },
        {
          "indexed": false,
          "internalType": "uint256",
          "name": "amount",
          "type": "uint256"
        },
        {
          "indexed": false,
          "internalType": "address[]",
          "name": "variants",
          "type": "address[]"
        },
        {
          "indexed": false,
          "internalType": "uint256[]",
          "name": "tokenIds",
          "type": "uint256[]"
        }
      ],
      "name": "NFTMintedAll",
      "type": "event"
    },
    {
      "anonymous": false,
      "inputs": [
        {
          "indexed": false,
          "internalType": "uint256",
          "name": "requestId",
          "type": "uint256"
        },
        {
          "indexed": false,
          "internalType": "address",
          "name": "requester",
          "type": "address"
        },
        {
          "indexed": false,
          "internalType": "address",
          "name": "payer",
          "type": "address"
        },
        {
          "indexed": false,
          "internalType": "address[]",
          "name": "variants",
          "type": "address[]"
        },
        {
          "indexed": false,
          "internalType": "uint256",
          "name": "amount",
          "type": "uint256"
        },
        {
          "indexed": false,
          "internalType": "uint256",
          "name": "lockedFunds",
          "type": "uint256"
        }
      ],
      "name": "NFTRequest",
      "type": "event"
    },
    {
      "anonymous": false,
      "inputs": [
        {
          "indexed": true,
          "internalType": "address",
          "name": "from",
          "type": "address"
        },
        {
          "indexed": true,
          "internalType": "address",
          "name": "to",
          "type": "address"
        }
      ],
      "name": "OwnershipTransferRequested",
      "type": "event"
    },
    {
      "anonymous": false,
      "inputs": [
        {
          "indexed": true,
          "internalType": "address",
          "name": "from",
          "type": "address"
        },
        {
          "indexed": true,
          "internalType": "address",
          "name": "to",
          "type": "address"
        }
      ],
      "name": "OwnershipTransferred",
      "type": "event"
    },
    {
      "anonymous": false,
      "inputs": [
        {
          "indexed": false,
          "internalType": "uint256",
          "name": "requestId",
          "type": "uint256"
        },
        {
          "indexed": false,
          "internalType": "address",
          "name": "payer",
          "type": "address"
        },
        {
          "indexed": false,
          "internalType": "address",
          "name": "token",
          "type": "address"
        },
        {
          "indexed": false,
          "internalType": "uint256",
          "name": "amount",
          "type": "uint256"
        }
      ],
      "name": "Refund",
      "type": "event"
    },
    {
      "inputs": [],
      "name": "MINTER_ROLE",
      "outputs": [
        {
          "internalType": "bytes32",
          "name": "",
          "type": "bytes32"
        }
      ],
      "stateMutability": "view",
      "type": "function"
    },
    {
      "inputs": [],
      "name": "acceptOwnership",
      "outputs": [],
      "stateMutability": "nonpayable",
      "type": "function"
    },
    {
      "inputs": [
        {
          "internalType": "uint256",
          "name": "_uniqueNumber",
          "type": "uint256"
        },
        {
          "internalType": "address[]",
          "name": "_randomVariants",
          "type": "address[]"
        }
      ],
      "name": "addRandomSet",
      "outputs": [],
      "stateMutability": "nonpayable",
      "type": "function"
    },
    {
      "inputs": [],
      "name": "callbackGasLimit",
      "outputs": [
        {
          "internalType": "uint32",
          "name": "",
          "type": "uint32"
        }
      ],
      "stateMutability": "view",
      "type": "function"
    },
    {
      "inputs": [
        {
          "internalType": "uint256",
          "name": "_uniqueNumber",
          "type": "uint256"
        }
      ],
      "name": "deleteRandomSet",
      "outputs": [],
      "stateMutability": "nonpayable",
      "type": "function"
    },
    {
      "inputs": [
        {
          "internalType": "address[]",
          "name": "_variants",
          "type": "address[]"
        },
        {
          "internalType": "uint256",
          "name": "_amount",
          "type": "uint256"
        },
        {
          "internalType": "address",
          "name": "_paymentToken",
          "type": "address"
        }
      ],
      "name": "getMaxAllowance",
      "outputs": [
        {
          "internalType": "uint256",
          "name": "",
          "type": "uint256"
        }
      ],
      "stateMutability": "view",
      "type": "function"
    },
    {
      "inputs": [
        {
          "internalType": "uint256",
          "name": "_uniqueNumber",
          "type": "uint256"
        }
      ],
      "name": "getRandomSet",
      "outputs": [
        {
          "internalType": "address[]",
          "name": "",
          "type": "address[]"
        }
      ],
      "stateMutability": "view",
      "type": "function"
    },
    {
      "inputs": [
        {
          "internalType": "uint256",
          "name": "_uniqueNumber",
          "type": "uint256"
        }
      ],
      "name": "getRandomSetLength",
      "outputs": [
        {
          "internalType": "uint256",
          "name": "",
          "type": "uint256"
        }
      ],
      "stateMutability": "view",
      "type": "function"
    },
    {
      "inputs": [
        {
          "internalType": "address",
          "name": "_variant",
          "type": "address"
        }
      ],
      "name": "getVariantRemainingSupply",
      "outputs": [
        {
          "internalType": "uint256",
          "name": "",
          "type": "uint256"
        }
      ],
      "stateMutability": "view",
      "type": "function"
    },
    {
      "inputs": [
        {
          "internalType": "address[]",
          "name": "_variants",
          "type": "address[]"
        }
      ],
      "name": "getVariantsTotalRemainingSupply",
      "outputs": [
        {
          "internalType": "uint256",
          "name": "",
          "type": "uint256"
        }
      ],
      "stateMutability": "view",
      "type": "function"
    },
    {
      "inputs": [
        {
          "internalType": "address",
          "name": "_variant",
          "type": "address"
        }
      ],
      "name": "isSupportedVariant",
      "outputs": [
        {
          "internalType": "bool",
          "name": "",
          "type": "bool"
        }
      ],
      "stateMutability": "view",
      "type": "function"
    },
    {
      "inputs": [],
      "name": "keyHash",
      "outputs": [
        {
          "internalType": "bytes32",
          "name": "",
          "type": "bytes32"
        }
      ],
      "stateMutability": "view",
      "type": "function"
    },
    {
      "inputs": [],
      "name": "owner",
      "outputs": [
        {
          "internalType": "address",
          "name": "",
          "type": "address"
        }
      ],
      "stateMutability": "view",
      "type": "function"
    },
    {
      "inputs": [
        {
          "internalType": "address[]",
          "name": "_variants",
          "type": "address[]"
        },
        {
          "internalType": "uint256",
          "name": "_randomNumber",
          "type": "uint256"
        }
      ],
      "name": "pickRandomVariant",
      "outputs": [
        {
          "internalType": "address",
          "name": "",
          "type": "address"
        }
      ],
      "stateMutability": "view",
      "type": "function"
    },
    {
      "inputs": [
        {
          "internalType": "uint256",
          "name": "requestId",
          "type": "uint256"
        },
        {
          "internalType": "uint256[]",
          "name": "randomWords",
          "type": "uint256[]"
        }
      ],
      "name": "rawFulfillRandomWords",
      "outputs": [],
      "stateMutability": "nonpayable",
      "type": "function"
    },
    {
      "inputs": [],
      "name": "requestConfirmations",
      "outputs": [
        {
          "internalType": "uint16",
          "name": "",
          "type": "uint16"
        }
      ],
      "stateMutability": "view",
      "type": "function"
    },
    {
      "inputs": [
        {
          "internalType": "address",
          "name": "_variant",
          "type": "address"
        },
        {
          "internalType": "uint256",
          "name": "_tokenStandard",
          "type": "uint256"
        },
        {
          "internalType": "uint256",
          "name": "_tokenType",
          "type": "uint256"
        },
        {
          "internalType": "uint256",
          "name": "_amount",
          "type": "uint256"
        },
        {
          "internalType": "address",
          "name": "_paymentToken",
          "type": "address"
        },
        {
          "internalType": "address",
          "name": "_minter",
          "type": "address"
        }
      ],
      "name": "requestNFTs",
      "outputs": [],
      "stateMutability": "nonpayable",
      "type": "function"
    },
    {
      "inputs": [
        {
          "internalType": "uint256",
          "name": "_uniqueNumber",
          "type": "uint256"
        },
        {
          "internalType": "uint256",
          "name": "_tokenStandard",
          "type": "uint256"
        },
        {
          "internalType": "uint32",
          "name": "_amount",
          "type": "uint32"
        },
        {
          "internalType": "address",
          "name": "_paymentToken",
          "type": "address"
        },
        {
          "internalType": "address",
          "name": "_minter",
          "type": "address"
        }
      ],
      "name": "requestRandomNFTs",
      "outputs": [],
      "stateMutability": "nonpayable",
      "type": "function"
    },
    {
      "inputs": [
        {
          "internalType": "uint256",
          "name": "",
          "type": "uint256"
        }
      ],
      "name": "s_requestIdToRequest",
      "outputs": [
        {
          "internalType": "address",
          "name": "requestOwner",
          "type": "address"
        },
        {
          "internalType": "address",
          "name": "requestPayer",
          "type": "address"
        },
        {
          "internalType": "uint256",
          "name": "tokenStandard",
          "type": "uint256"
        },
        {
          "internalType": "uint256",
          "name": "amount",
          "type": "uint256"
        },
        {
          "internalType": "address",
          "name": "paymentToken",
          "type": "address"
        },
        {
          "internalType": "uint256",
          "name": "lockedFunds",
          "type": "uint256"
        }
      ],
      "stateMutability": "view",
      "type": "function"
    },
    {
      "inputs": [],
      "name": "s_subscriptionId",
      "outputs": [
        {
          "internalType": "uint64",
          "name": "",
          "type": "uint64"
        }
      ],
      "stateMutability": "view",
      "type": "function"
    },
    {
      "inputs": [
        {
          "internalType": "uint32",
          "name": "_callbackGasLimit",
          "type": "uint32"
        }
      ],
      "name": "setCallbackGasLimit",
      "outputs": [],
      "stateMutability": "nonpayable",
      "type": "function"
    },
    {
      "inputs": [
        {
          "internalType": "bytes32",
          "name": "_keyHash",
          "type": "bytes32"
        }
      ],
      "name": "setKeyHash",
      "outputs": [],
      "stateMutability": "nonpayable",
      "type": "function"
    },
    {
      "inputs": [
        {
          "internalType": "uint16",
          "name": "_requestConfirmations",
          "type": "uint16"
        }
      ],
      "name": "setRequestConfirmations",
      "outputs": [],
      "stateMutability": "nonpayable",
      "type": "function"
    },
    {
      "inputs": [
        {
          "internalType": "uint64",
          "name": "_subscriptionId",
          "type": "uint64"
        }
      ],
      "name": "setSubscriptionId",
      "outputs": [],
      "stateMutability": "nonpayable",
      "type": "function"
    },
    {
      "inputs": [
        {
          "internalType": "address",
          "name": "_variant",
          "type": "address"
        },
        {
          "internalType": "bool",
          "name": "_supported",
          "type": "bool"
        }
      ],
      "name": "setSupportedVariant",
      "outputs": [],
      "stateMutability": "nonpayable",
      "type": "function"
    },
    {
      "inputs": [
        {
          "internalType": "address",
          "name": "",
          "type": "address"
        }
      ],
      "name": "supportedVariants",
      "outputs": [
        {
          "internalType": "bool",
          "name": "",
          "type": "bool"
        }
      ],
      "stateMutability": "view",
      "type": "function"
    },
    {
      "inputs": [
        {
          "internalType": "address",
          "name": "to",
          "type": "address"
        }
      ],
      "name": "transferOwnership",
      "outputs": [],
      "stateMutability": "nonpayable",
      "type": "function"
    },
    {
      "inputs": [
        {
          "internalType": "uint256",
          "name": "",
          "type": "uint256"
        }
      ],
      "name": "usedUniqueNumbers",
      "outputs": [
        {
          "internalType": "bool",
          "name": "",
          "type": "bool"
        }
      ],
      "stateMutability": "view",
      "type": "function"
    },
    {
      "inputs": [
        {
          "internalType": "uint256",
          "name": "",
          "type": "uint256"
        },
        {
          "internalType": "uint256",
          "name": "",
          "type": "uint256"
        }
      ],
      "name": "validRandomSets",
      "outputs": [
        {
          "internalType": "address",
          "name": "",
          "type": "address"
        }
      ],
      "stateMutability": "view",
      "type": "function"
    }
  ],
  "bytecode": "0x60a06040526009805465ffffffffffff1916642625a000031790553480156200002757600080fd5b50604051620030ce380380620030ce8339810160408190526200004a91620001d3565b6001600160a01b0382166080523380600081620000ae5760405162461bcd60e51b815260206004820152601860248201527f43616e6e6f7420736574206f776e657220746f207a65726f000000000000000060448201526064015b60405180910390fd5b600080546001600160a01b0319166001600160a01b0384811691909117909155811615620000e157620000e18162000128565b5050600160025550600680546001600160401b03909416600160a01b026001600160e01b03199094166001600160a01b039093169290921792909217905560085562000231565b336001600160a01b03821603620001825760405162461bcd60e51b815260206004820152601760248201527f43616e6e6f74207472616e7366657220746f2073656c660000000000000000006044820152606401620000a5565b600180546001600160a01b0319166001600160a01b0383811691821790925560008054604051929316917fed8889f560326eb138920d842192f0eb3dd22b4f139c87a2c57538e05bae12789190a350565b600080600060608486031215620001e957600080fd5b83516001600160401b03811681146200020157600080fd5b60208501519093506001600160a01b03811681146200021f57600080fd5b80925050604084015190509250925092565b608051612e7a620002546000396000818161050601526105480152612e7a6000f3fe608060405234801561001057600080fd5b506004361061015f5760003560e01c806302c71330146101645780631f62d5361461019c5780631fe543e3146101bd57806324f74697146101d25780632f469af9146101fd57806330e3fda7146102105780634f386ac91461022357806351c31775146102435780635eca05211461025657806361728f391461026957806374ce4e6314610272578063763046cf1461028557806379ba50971461029857806379e492c9146102a05780638824f5a7146102c05780638ac00021146102d35780638da5cb5b14610305578063903e4fb11461031657806395fcf7b8146103a857806398544710146103c8578063a4eb718c146103db578063a80549b7146103ee578063b0fb162f14610401578063d539139314610422578063de6722a114610437578063ea7b4f771461045a578063f2fde38b1461046d578063fa0113ea14610480578063fcd3e48214610493575b600080fd5b6101876101723660046124ac565b60036020526000908152604090205460ff1681565b60405190151581526020015b60405180910390f35b6101af6101aa3660046125a8565b6104a6565b604051908152602001610193565b6101d06101cb3660046125dc565b6104fb565b005b6009546101e89062010000900463ffffffff1681565b60405163ffffffff9091168152602001610193565b6101d061020b366004612691565b610588565b61018761021e3660046124ac565b6105c5565b6102366102313660046126ca565b6105e3565b604051610193919061270e565b6101d061025136600461273b565b6106df565b6101af610264366004612798565b610c08565b6101af60085481565b6101d06102803660046127f2565b610d03565b6101af6102933660046124ac565b611178565b6101d0611253565b6102b36102ae366004612859565b6112fd565b60405161019391906128b6565b6101d06102ce3660046128c9565b611369565b6006546102ed90600160a01b90046001600160401b031681565b6040516001600160401b039091168152602001610193565b6000546001600160a01b0316610236565b610369610324366004612859565b6007602052600090815260409020805460018201546003830154600484015460058501546006909501546001600160a01b039485169593851694929391929091169086565b604080516001600160a01b03978816815295871660208701528501939093526060840191909152909216608082015260a081019190915260c001610193565b6101af6103b6366004612859565b60009081526004602052604090205490565b6101d06103d6366004612859565b611395565b6101d06103e93660046128ed565b6113b4565b6101d06103fc366004612859565b6113e8565b60095461040f9061ffff1681565b60405161ffff9091168152602001610193565b6101af600080516020612e2583398151915281565b610187610445366004612859565b60056020526000908152604090205460ff1681565b6101d0610468366004612908565b611467565b6101d061047b3660046124ac565b6114a3565b61023661048e366004612931565b6114b4565b6101d06104a1366004612953565b6114ec565b600080805b83518110156104f4576104d68482815181106104c9576104c9612999565b6020026020010151611178565b6104e090836129c5565b9150806104ec816129d8565b9150506104ab565b5092915050565b336001600160a01b037f0000000000000000000000000000000000000000000000000000000000000000161461057a5760405163073e64fd60e21b81523360048201526001600160a01b037f00000000000000000000000000000000000000000000000000000000000000001660248201526044015b60405180910390fd5b6105848282611589565b5050565b610590611fbd565b610598612012565b6001600160a01b0382166000908152600360205260409020805460ff191682151517905560016002555050565b6001600160a01b031660009081526003602052604090205460ff1690565b6000808351836105f391906129f1565b9050600061060c8583815181106104c9576104c9612999565b11156106345783818151811061062457610624612999565b60200260200101519150506106d9565b61063f8160016129c5565b905060005b600185516106529190612a13565b8110156106d257600185516106679190612a13565b82111561067357600091505b600061068a8684815181106104c9576104c9612999565b11156106b3578482815181106106a2576106a2612999565b6020026020010151925050506106d9565b6106be8260016129c5565b9150806106ca816129d8565b915050610644565b5060009150505b92915050565b60008363ffffffff161180156106fc5750600a8363ffffffff1611155b6107335760405162461bcd60e51b8152602060048201526008602482015267544d2d453130303160c01b6044820152606401610571565b83600114806107425750836002145b61075e5760405162461bcd60e51b815260040161057190612a26565b6000610769866112fd565b905060008151116107a75760405162461bcd60e51b8152602060048201526008602482015267544d2d453130303360c01b6044820152606401610571565b8363ffffffff166107b7826104a6565b10156107d55760405162461bcd60e51b815260040161057190612a48565b60005b8151811015610a0a576108038282815181106107f6576107f6612999565b60200260200101516105c5565b61081f5760405162461bcd60e51b815260040161057190612a6a565b600082828151811061083357610833612999565b60200260200101519050806001600160a01b03166391d14854600080516020612e25833981519152306040518363ffffffff1660e01b8152600401610879929190612a8c565b602060405180830381865afa158015610896573d6000803e3d6000fd5b505050506040513d601f19601f820116820180604052508101906108ba9190612aa3565b6108d65760405162461bcd60e51b815260040161057190612ac0565b604051630fa40d9960e21b81526000906001600160a01b03831690633e9036649061090590899060040161270e565b602060405180830381865afa158015610922573d6000803e3d6000fd5b505050506040513d601f19601f820116820180604052508101906109469190612ae2565b9050600081116109685760405162461bcd60e51b815260040161057190612afb565b6000826001600160a01b0316636601ae4d6040518163ffffffff1660e01b8152600401602060405180830381865afa1580156109a8573d6000803e3d6000fd5b505050506040513d601f19601f820116820180604052508101906109cc9190612b1d565b90506001600160a01b0381166109f45760405162461bcd60e51b815260040161057190612b3a565b5050508080610a02906129d8565b9150506107d8565b506000610a1e828663ffffffff1686610c08565b905083610a2d81333085612069565b6006546008546009546040516305d3b1d360e41b81526004810192909252600160a01b83046001600160401b0316602483015261ffff8116604483015262010000900463ffffffff166064820152600160848201526000916001600160a01b031690635d3b1d309060a4016020604051808303816000875af1158015610ab7573d6000803e3d6000fd5b505050506040513d601f19601f82011682018060405250810190610adb9190612ae2565b6040805160e0810182526001600160a01b0380891682523360208084019182528385018a8152606085018f905263ffffffff8e1660808601528c841660a086015260c085018a905260008781526007835295909520845181549085166001600160a01b0319918216178255925160018201805491909516931692909217909255925180519495509193610b749260028501920190612403565b50606082015160038201556080820151600482015560a08201516005820180546001600160a01b0319166001600160a01b0390921691909117905560c0909101516006909101556040517f7b018e063fca6df0e0c61f8fd9ee233d623c10347b503f0a2e2c4f87d0db547790610bf59083908890339089908d908a90612b5c565b60405180910390a1505050505050505050565b600080805b8551811015610cec576000868281518110610c2a57610c2a612999565b6020026020010151905060008190506000816001600160a01b0316633e903664886040518263ffffffff1660e01b8152600401610c67919061270e565b602060405180830381865afa158015610c84573d6000803e3d6000fd5b505050506040513d601f19601f82011682018060405250810190610ca89190612ae2565b905060008111610cca5760405162461bcd60e51b815260040161057190612afb565b84811115610cd6578094505b5050508080610ce4906129d8565b915050610c0d565b506000610cf98583612ba9565b9695505050505050565b8460011480610d125750846002145b610d2e5760405162461bcd60e51b815260040161057190612a26565b610d37866105c5565b610d535760405162461bcd60e51b815260040161057190612a6a565b6040805160008082526020820190925290846001600160401b03811115610d7c57610d7c6124c9565b604051908082528060200260200182016040528015610da5578160200160208202803683370190505b5090506000856001600160401b03811115610dc257610dc26124c9565b604051908082528060200260200182016040528015610deb578160200160208202803683370190505b50905060005b8681101561114f5789828281518110610e0c57610e0c612999565b6001600160a01b039283166020918202929092010152604051632474521560e21b81528b918216906391d1485490610e5890600080516020612e25833981519152903090600401612a8c565b602060405180830381865afa158015610e75573d6000803e3d6000fd5b505050506040513d601f19601f82011682018060405250810190610e999190612aa3565b610eb55760405162461bcd60e51b815260040161057190612ac0565b806001600160a01b031663aacc5a176040518163ffffffff1660e01b8152600401602060405180830381865afa158015610ef3573d6000803e3d6000fd5b505050506040513d601f19601f82011682018060405250810190610f179190612aa3565b15610f4f5760405162461bcd60e51b8152602060048201526008602482015267544d2d453130303960c01b6044820152606401610571565b6001610f5a82611178565b1015610f785760405162461bcd60e51b815260040161057190612a48565b604051630fa40d9960e21b81526000906001600160a01b03831690633e90366490610fa7908b9060040161270e565b602060405180830381865afa158015610fc4573d6000803e3d6000fd5b505050506040513d601f19601f82011682018060405250810190610fe89190612ae2565b90506000811161100a5760405162461bcd60e51b815260040161057190612afb565b6000826001600160a01b0316636601ae4d6040518163ffffffff1660e01b8152600401602060405180830381865afa15801561104a573d6000803e3d6000fd5b505050506040513d601f19601f8201168201806040525081019061106e9190612b1d565b90506001600160a01b0381166110965760405162461bcd60e51b815260040161057190612b3a565b6000836001600160a01b031663c3145c0c8a8e6040518363ffffffff1660e01b81526004016110c6929190612bc0565b6020604051808303816000875af11580156110e5573d6000803e3d6000fd5b505050506040513d601f19601f820116820180604052508101906111099190612ae2565b90508961111881338587612069565b8188878151811061112b5761112b612999565b60200260200101818152505050505050508080611147906129d8565b915050610df1565b50600080516020612dc583398151915260008585898587604051610bf596959493929190612c09565b600080829050806001600160a01b03166318160ddd6040518163ffffffff1660e01b8152600401602060405180830381865afa1580156111bc573d6000803e3d6000fd5b505050506040513d601f19601f820116820180604052508101906111e09190612ae2565b816001600160a01b031663104aeef86040518163ffffffff1660e01b8152600401602060405180830381865afa15801561121e573d6000803e3d6000fd5b505050506040513d601f19601f820116820180604052508101906112429190612ae2565b61124c9190612a13565b9392505050565b6001546001600160a01b031633146112a65760405162461bcd60e51b815260206004820152601660248201527526bab9ba10313290383937b837b9b2b21037bbb732b960511b6044820152606401610571565b60008054336001600160a01b0319808316821784556001805490911690556040516001600160a01b0390921692909183917f8be0079c531659141344cd1fd0a4f28419497f9722a3daafe3b4186f6b6457e091a350565b60008181526004602090815260409182902080548351818402810184019094528084526060939283018282801561135d57602002820191906000526020600020905b81546001600160a01b0316815260019091019060200180831161133f575b50505050509050919050565b611371611fbd565b611379612012565b6009805461ffff191661ffff8316179055600160025550565b50565b61139d611fbd565b6113a5612012565b60088190556113926001600255565b6113bc611fbd565b6113c4612012565b6009805465ffffffff000019166201000063ffffffff841602179055600160025550565b6113f0611fbd565b6113f8612012565b60008181526005602052604090205460ff1615156001146114465760405162461bcd60e51b8152602060048201526008602482015267544d2d453130313160c01b6044820152606401610571565b600081815260046020526040812061145d91612468565b6113926001600255565b61146f611fbd565b611477612012565b60068054600160a01b600160e01b031916600160a01b6001600160401b03841602179055600160025550565b6114ab611fbd565b611392816120da565b600460205281600052604060002081815481106114d057600080fd5b6000918252602090912001546001600160a01b03169150829050565b6114f4611fbd565b6114fc612012565b60008281526005602052604090205460ff16156115465760405162461bcd60e51b81526020600482015260086024820152670544d2d45313031360c41b6044820152606401610571565b6000828152600460209081526040909120825161156592840190612403565b506000828152600560205260409020805460ff191660011790556105846001600255565b6000828152600760209081526040808320815160e08101835281546001600160a01b0390811682526001830154168185015260028201805484518187028101870186528181529295939486019383018282801561160f57602002820191906000526020600020905b81546001600160a01b031681526001909101906020018083116115f1575b505050918352505060038201546020820152600482015460408083019190915260058301546001600160a01b031660608301526006909201546080918201528251918301519083015192935090916000906001600160401b03811115611677576116776124c9565b6040519080825280602002602001820160405280156116a0578160200160208202803683370190505b509050600084608001516001600160401b038111156116c1576116c16124c9565b6040519080825280602002602001820160405280156116ea578160200160208202803683370190505b50905060008560a0015190506000806000808960600151600103611f7c578751600103611b675760005b8a60800151811015611b035760008c60008151811061173557611735612999565b60200260200101514243846040516020016117539493929190612c6c565b6040516020818303038152906040528051906020012060001c90508960008151811061178157611781612999565b602002602001015188838151811061179b5761179b612999565b60200260200101906001600160a01b031690816001600160a01b03168152505060008a6000815181106117d0576117d0612999565b60200260200101519050806001600160a01b03166391d14854600080516020612e25833981519152306040518363ffffffff1660e01b8152600401611816929190612a8c565b602060405180830381865afa158015611833573d6000803e3d6000fd5b505050506040513d601f19601f820116820180604052508101906118579190612aa3565b6118735760405162461bcd60e51b815260040161057190612ac0565b60a08d0151604051630fa40d9960e21b81526001600160a01b03831691633e903664916118a3919060040161270e565b602060405180830381865afa1580156118c0573d6000803e3d6000fd5b505050506040513d601f19601f820116820180604052508101906118e49190612ae2565b9650806001600160a01b0316636601ae4d6040518163ffffffff1660e01b8152600401602060405180830381865afa158015611924573d6000803e3d6000fd5b505050506040513d601f19601f820116820180604052508101906119489190612b1d565b60405163551ccbed60e01b81529095506001600160a01b0382169063551ccbed90611979908f908690600401612bc0565b6020604051808303816000875af19250505080156119b4575060408051601f3d908101601f191682019092526119b191810190612ae2565b60015b611a84576119c0612c87565b806308c379a003611a0a57506119d4612ca3565b806119df5750611a0c565b600080516020612de5833981519152816040516119fc9190612d50565b60405180910390a150611aee565b505b3d808015611a36576040519150601f19603f3d011682016040523d82523d6000602084013e611a3b565b606091505b50600080516020612de58339815191526040516119fc906020808252601890820152776d696e7452616e646f6d54797065206572726f722028312960401b604082015260600190565b60c08e0151600090611a968a8a6129c5565b1115611ab157878f60c00151611aac9190612a13565b611ab3565b885b9050611ac08a888361217d565b611aca81896129c5565b9750818c8681518110611adf57611adf612999565b60200260200101818152505050505b50508080611afb906129d8565b915050611714565b506000838b60c00151611b169190612a13565b90508015611b6157611b2d868c602001518361217d565b600080516020612e058339815191528d8c602001518d60a0015184604051611b589493929190612d83565b60405180910390a15b50611f7c565b60005b8a60800151811015611f1c5760008c600081518110611b8b57611b8b612999565b6020026020010151424384604051602001611ba99493929190612c6c565b6040516020818303038152906040528051906020012060001c9050611bce8a826105e3565b925082888381518110611be357611be3612999565b6001600160a01b039283166020918202929092010152604051632474521560e21b815284918216906391d1485490611c2f90600080516020612e25833981519152903090600401612a8c565b602060405180830381865afa158015611c4c573d6000803e3d6000fd5b505050506040513d601f19601f82011682018060405250810190611c709190612aa3565b611c8c5760405162461bcd60e51b815260040161057190612ac0565b60a08d0151604051630fa40d9960e21b81526001600160a01b03831691633e90366491611cbc919060040161270e565b602060405180830381865afa158015611cd9573d6000803e3d6000fd5b505050506040513d601f19601f82011682018060405250810190611cfd9190612ae2565b9650806001600160a01b0316636601ae4d6040518163ffffffff1660e01b8152600401602060405180830381865afa158015611d3d573d6000803e3d6000fd5b505050506040513d601f19601f82011682018060405250810190611d619190612b1d565b60405163551ccbed60e01b81529095506001600160a01b0382169063551ccbed90611d92908f908690600401612bc0565b6020604051808303816000875af1925050508015611dcd575060408051601f3d908101601f19168201909252611dca91810190612ae2565b60015b611e9d57611dd9612c87565b806308c379a003611e235750611ded612ca3565b80611df85750611e25565b600080516020612de583398151915281604051611e159190612d50565b60405180910390a150611f07565b505b3d808015611e4f576040519150601f19603f3d011682016040523d82523d6000602084013e611e54565b606091505b50600080516020612de5833981519152604051611e15906020808252601890820152776d696e7452616e646f6d54797065206572726f722028322960401b604082015260600190565b60c08e0151600090611eaf8a8a6129c5565b1115611eca57878f60c00151611ec59190612a13565b611ecc565b885b9050611ed98a888361217d565b611ee381896129c5565b9750818c8681518110611ef857611ef8612999565b60200260200101818152505050505b50508080611f14906129d8565b915050611b6a565b506000838b60c00151611f2f9190612a13565b90508015611f7a57611f46868c602001518361217d565b600080516020612e058339815191528d8c602001518d60a0015184604051611f719493929190612d83565b60405180910390a15b505b600080516020612dc58339815191528c8a8d8d608001518a8c604051611fa796959493929190612c09565b60405180910390a1505050505050505050505050565b6000546001600160a01b031633146120105760405162461bcd60e51b815260206004820152601660248201527527b7363c9031b0b63630b1363290313c9037bbb732b960511b6044820152606401610571565b565b60028054036120635760405162461bcd60e51b815260206004820152601f60248201527f5265656e7472616e637947756172643a207265656e7472616e742063616c6c006044820152606401610571565b60028055565b6040516001600160a01b03808516602483015283166044820152606481018290526120d49085906323b872dd60e01b906084015b60408051601f198184030181529190526020810180516001600160e01b03166001600160e01b0319909316929092179091526121a1565b50505050565b336001600160a01b0382160361212c5760405162461bcd60e51b815260206004820152601760248201527621b0b73737ba103a3930b739b332b9103a379039b2b63360491b6044820152606401610571565b600180546001600160a01b0319166001600160a01b0383811691821790925560008054604051929316917fed8889f560326eb138920d842192f0eb3dd22b4f139c87a2c57538e05bae12789190a350565b61219c8363a9059cbb60e01b848460405160240161209d929190612bc0565b505050565b60006121f6826040518060400160405280602081526020017f5361666545524332303a206c6f772d6c6576656c2063616c6c206661696c6564815250856001600160a01b03166122739092919063ffffffff16565b80519091501561219c57808060200190518101906122149190612aa3565b61219c5760405162461bcd60e51b815260206004820152602a60248201527f5361666545524332303a204552433230206f7065726174696f6e20646964206e6044820152691bdd081cdd58d8d9595960b21b6064820152608401610571565b6060612282848460008561228a565b949350505050565b6060824710156122eb5760405162461bcd60e51b815260206004820152602660248201527f416464726573733a20696e73756666696369656e742062616c616e636520666f6044820152651c8818d85b1b60d21b6064820152608401610571565b600080866001600160a01b031685876040516123079190612da8565b60006040518083038185875af1925050503d8060008114612344576040519150601f19603f3d011682016040523d82523d6000602084013e612349565b606091505b509150915061235a87838387612365565b979650505050505050565b606083156123d45782516000036123cd576001600160a01b0385163b6123cd5760405162461bcd60e51b815260206004820152601d60248201527f416464726573733a2063616c6c20746f206e6f6e2d636f6e74726163740000006044820152606401610571565b5081612282565b61228283838151156123e95781518083602001fd5b8060405162461bcd60e51b81526004016105719190612d50565b828054828255906000526020600020908101928215612458579160200282015b8281111561245857825182546001600160a01b0319166001600160a01b03909116178255602090920191600190910190612423565b50612464929150612482565b5090565b508054600082559060005260206000209081019061139291905b5b808211156124645760008155600101612483565b6001600160a01b038116811461139257600080fd5b6000602082840312156124be57600080fd5b813561124c81612497565b634e487b7160e01b600052604160045260246000fd5b601f8201601f191681016001600160401b0381118282101715612504576125046124c9565b6040525050565b60006001600160401b03821115612524576125246124c9565b5060051b60200190565b600082601f83011261253f57600080fd5b8135602061254c8261250b565b60405161255982826124df565b83815260059390931b850182019282810191508684111561257957600080fd5b8286015b8481101561259d57803561259081612497565b835291830191830161257d565b509695505050505050565b6000602082840312156125ba57600080fd5b81356001600160401b038111156125d057600080fd5b6122828482850161252e565b600080604083850312156125ef57600080fd5b823591506020808401356001600160401b0381111561260d57600080fd5b8401601f8101861361261e57600080fd5b80356126298161250b565b60405161263682826124df565b82815260059290921b830184019184810191508883111561265657600080fd5b928401925b828410156126745783358252928401929084019061265b565b80955050505050509250929050565b801515811461139257600080fd5b600080604083850312156126a457600080fd5b82356126af81612497565b915060208301356126bf81612683565b809150509250929050565b600080604083850312156126dd57600080fd5b82356001600160401b038111156126f357600080fd5b6126ff8582860161252e565b95602094909401359450505050565b6001600160a01b0391909116815260200190565b803563ffffffff8116811461273657600080fd5b919050565b600080600080600060a0868803121561275357600080fd5b853594506020860135935061276a60408701612722565b9250606086013561277a81612497565b9150608086013561278a81612497565b809150509295509295909350565b6000806000606084860312156127ad57600080fd5b83356001600160401b038111156127c357600080fd5b6127cf8682870161252e565b9350506020840135915060408401356127e781612497565b809150509250925092565b60008060008060008060c0878903121561280b57600080fd5b863561281681612497565b9550602087013594506040870135935060608701359250608087013561283b81612497565b915060a087013561284b81612497565b809150509295509295509295565b60006020828403121561286b57600080fd5b5035919050565b600081518084526020808501945080840160005b838110156128ab5781516001600160a01b031687529582019590820190600101612886565b509495945050505050565b60208152600061124c6020830184612872565b6000602082840312156128db57600080fd5b813561ffff8116811461124c57600080fd5b6000602082840312156128ff57600080fd5b61124c82612722565b60006020828403121561291a57600080fd5b81356001600160401b038116811461124c57600080fd5b6000806040838503121561294457600080fd5b50508035926020909101359150565b6000806040838503121561296657600080fd5b8235915060208301356001600160401b0381111561298357600080fd5b61298f8582860161252e565b9150509250929050565b634e487b7160e01b600052603260045260246000fd5b634e487b7160e01b600052601160045260246000fd5b808201808211156106d9576106d96129af565b6000600182016129ea576129ea6129af565b5060010190565b600082612a0e57634e487b7160e01b600052601260045260246000fd5b500690565b818103818111156106d9576106d96129af565b6020808252600890820152672a2696a29898181960c11b604082015260600190565b60208082526008908201526715134b514c4c0c0d60c21b604082015260600190565b602080825260089082015267544d2d453130303560c01b604082015260600190565b9182526001600160a01b0316602082015260400190565b600060208284031215612ab557600080fd5b815161124c81612683565b6020808252600890820152672a2696a29898181b60c11b604082015260600190565b600060208284031215612af457600080fd5b5051919050565b602080825260089082015267544d2d453130303760c01b604082015260600190565b600060208284031215612b2f57600080fd5b815161124c81612497565b6020808252600890820152670a89a5a8a626060760c31b604082015260600190565b8681526001600160a01b0386811660208301528516604082015260c060608201819052600090612b8e90830186612872565b63ffffffff9490941660808301525060a00152949350505050565b80820281158282048414176106d9576106d96129af565b6001600160a01b03929092168252602082015260400190565b600081518084526020808501945080840160005b838110156128ab57815187529582019590820190600101612bed565b8681526001600160a01b038616602082015260c060408201819052600090612c3390830187612bd9565b8560608401528281036080840152612c4b8186612872565b905082810360a0840152612c5f8185612bd9565b9998505050505050505050565b93845260208401929092526040830152606082015260800190565b600060033d1115612ca05760046000803e5060005160e01c5b90565b600060443d1015612cb15790565b6040516003193d81016004833e81513d6001600160401b038083116024840183101715612ce057505050505090565b8285019150815181811115612cf85750505050505090565b843d8701016020828501011115612d125750505050505090565b612d21602082860101876124df565b509095945050505050565b60005b83811015612d47578181015183820152602001612d2f565b50506000910152565b6020815260008251806020840152612d6f816040850160208701612d2c565b601f01601f19169190910160400192915050565b9384526001600160a01b03928316602085015291166040830152606082015260800190565b60008251612dba818460208701612d2c565b919091019291505056fe1a7e3d333b211f8e25b58dd53d2241404af3495ccd47c55200f97fa444e97454cf34ef537ac33ee1ac626ca1587a0a7e8e51561e5514f8cb36afa1c5102b3babae4600bc3786dafd4f3459692821fe209dcde1a5283d33f0675340813bc4ad489f2df0fed2c77648de5860a4cc508cd0818c85b8b8a1ab4ceeef8d981c8956a6a2646970667358221220fef866db61672527684bbb3f9dd55cddb8d4d73e1be8be0f6a0b861de810d73a64736f6c63430008110033",
  "linkReferences": {},
  "deployedLinkReferences": {}
}