{
  "_format": "hh-sol-artifact-1",
  "contractName": "PGERC1155",
  "sourceName": "contracts/keychains/PGERC1155.sol",
  "abi": [
    {
      "inputs": [
        {
          "internalType": "string",
          "name": "_name",
          "type": "string"
        },
        {
          "internalType": "string",
          "name": "_symbol",
          "type": "string"
        }
      ],
      "stateMutability": "nonpayable",
      "type": "constructor"
    },
    {
      "anonymous": false,
      "inputs": [
        {
          "indexed": true,
          "internalType": "address",
          "name": "account",
          "type": "address"
        },
        {
          "indexed": true,
          "internalType": "address",
          "name": "operator",
          "type": "address"
        },
        {
          "indexed": false,
          "internalType": "bool",
          "name": "approved",
          "type": "bool"
        }
      ],
      "name": "ApprovalForAll",
      "type": "event"
    },
    {
      "anonymous": false,
      "inputs": [
        {
          "indexed": true,
          "internalType": "address",
          "name": "previousOwner",
          "type": "address"
        },
        {
          "indexed": true,
          "internalType": "address",
          "name": "newOwner",
          "type": "address"
        }
      ],
      "name": "OwnershipTransferred",
      "type": "event"
    },
    {
      "anonymous": false,
      "inputs": [
        {
          "indexed": true,
          "internalType": "bytes32",
          "name": "role",
          "type": "bytes32"
        },
        {
          "indexed": true,
          "internalType": "bytes32",
          "name": "previousAdminRole",
          "type": "bytes32"
        },
        {
          "indexed": true,
          "internalType": "bytes32",
          "name": "newAdminRole",
          "type": "bytes32"
        }
      ],
      "name": "RoleAdminChanged",
      "type": "event"
    },
    {
      "anonymous": false,
      "inputs": [
        {
          "indexed": true,
          "internalType": "bytes32",
          "name": "role",
          "type": "bytes32"
        },
        {
          "indexed": true,
          "internalType": "address",
          "name": "account",
          "type": "address"
        },
        {
          "indexed": true,
          "internalType": "address",
          "name": "sender",
          "type": "address"
        }
      ],
      "name": "RoleGranted",
      "type": "event"
    },
    {
      "anonymous": false,
      "inputs": [
        {
          "indexed": true,
          "internalType": "bytes32",
          "name": "role",
          "type": "bytes32"
        },
        {
          "indexed": true,
          "internalType": "address",
          "name": "account",
          "type": "address"
        },
        {
          "indexed": true,
          "internalType": "address",
          "name": "sender",
          "type": "address"
        }
      ],
      "name": "RoleRevoked",
      "type": "event"
    },
    {
      "anonymous": false,
      "inputs": [
        {
          "indexed": true,
          "internalType": "address",
          "name": "operator",
          "type": "address"
        },
        {
          "indexed": true,
          "internalType": "address",
          "name": "from",
          "type": "address"
        },
        {
          "indexed": true,
          "internalType": "address",
          "name": "to",
          "type": "address"
        },
        {
          "indexed": false,
          "internalType": "uint256[]",
          "name": "ids",
          "type": "uint256[]"
        },
        {
          "indexed": false,
          "internalType": "uint256[]",
          "name": "values",
          "type": "uint256[]"
        }
      ],
      "name": "TransferBatch",
      "type": "event"
    },
    {
      "anonymous": false,
      "inputs": [
        {
          "indexed": true,
          "internalType": "address",
          "name": "operator",
          "type": "address"
        },
        {
          "indexed": true,
          "internalType": "address",
          "name": "from",
          "type": "address"
        },
        {
          "indexed": true,
          "internalType": "address",
          "name": "to",
          "type": "address"
        },
        {
          "indexed": false,
          "internalType": "uint256",
          "name": "id",
          "type": "uint256"
        },
        {
          "indexed": false,
          "internalType": "uint256",
          "name": "value",
          "type": "uint256"
        }
      ],
      "name": "TransferSingle",
      "type": "event"
    },
    {
      "anonymous": false,
      "inputs": [
        {
          "indexed": false,
          "internalType": "string",
          "name": "value",
          "type": "string"
        },
        {
          "indexed": true,
          "internalType": "uint256",
          "name": "id",
          "type": "uint256"
        }
      ],
      "name": "URI",
      "type": "event"
    },
    {
      "inputs": [],
      "name": "DEFAULT_ADMIN_ROLE",
      "outputs": [
        {
          "internalType": "bytes32",
          "name": "",
          "type": "bytes32"
        }
      ],
      "stateMutability": "view",
      "type": "function"
    },
    {
      "inputs": [],
      "name": "MINTER_CAPPED_ROLE",
      "outputs": [
        {
          "internalType": "bytes32",
          "name": "",
          "type": "bytes32"
        }
      ],
      "stateMutability": "view",
      "type": "function"
    },
    {
      "inputs": [],
      "name": "MINTER_ROLE",
      "outputs": [
        {
          "internalType": "bytes32",
          "name": "",
          "type": "bytes32"
        }
      ],
      "stateMutability": "view",
      "type": "function"
    },
    {
      "inputs": [],
      "name": "WHITELISTER_ROLE",
      "outputs": [
        {
          "internalType": "bytes32",
          "name": "",
          "type": "bytes32"
        }
      ],
      "stateMutability": "view",
      "type": "function"
    },
    {
      "inputs": [
        {
          "internalType": "address",
          "name": "account",
          "type": "address"
        },
        {
          "internalType": "uint256",
          "name": "id",
          "type": "uint256"
        }
      ],
      "name": "balanceOf",
      "outputs": [
        {
          "internalType": "uint256",
          "name": "",
          "type": "uint256"
        }
      ],
      "stateMutability": "view",
      "type": "function"
    },
    {
      "inputs": [
        {
          "internalType": "address[]",
          "name": "accounts",
          "type": "address[]"
        },
        {
          "internalType": "uint256[]",
          "name": "ids",
          "type": "uint256[]"
        }
      ],
      "name": "balanceOfBatch",
      "outputs": [
        {
          "internalType": "uint256[]",
          "name": "",
          "type": "uint256[]"
        }
      ],
      "stateMutability": "view",
      "type": "function"
    },
    {
      "inputs": [
        {
          "internalType": "uint256",
          "name": "_id",
          "type": "uint256"
        },
        {
          "internalType": "uint256",
          "name": "_amount",
          "type": "uint256"
        }
      ],
      "name": "burn",
      "outputs": [],
      "stateMutability": "nonpayable",
      "type": "function"
    },
    {
      "inputs": [
        {
          "internalType": "uint256[]",
          "name": "_ids",
          "type": "uint256[]"
        },
        {
          "internalType": "uint256[]",
          "name": "_amounts",
          "type": "uint256[]"
        }
      ],
      "name": "burnBatch",
      "outputs": [],
      "stateMutability": "nonpayable",
      "type": "function"
    },
    {
      "inputs": [
        {
          "internalType": "bytes32",
          "name": "role",
          "type": "bytes32"
        }
      ],
      "name": "getRoleAdmin",
      "outputs": [
        {
          "internalType": "bytes32",
          "name": "",
          "type": "bytes32"
        }
      ],
      "stateMutability": "view",
      "type": "function"
    },
    {
      "inputs": [
        {
          "internalType": "uint256",
          "name": "_id",
          "type": "uint256"
        }
      ],
      "name": "getSupplies",
      "outputs": [
        {
          "internalType": "uint256",
          "name": "",
          "type": "uint256"
        }
      ],
      "stateMutability": "view",
      "type": "function"
    },
    {
      "inputs": [
        {
          "internalType": "address",
          "name": "add",
          "type": "address"
        },
        {
          "internalType": "uint256",
          "name": "_id",
          "type": "uint256"
        }
      ],
      "name": "getWhitelistedUser",
      "outputs": [
        {
          "internalType": "bool",
          "name": "",
          "type": "bool"
        }
      ],
      "stateMutability": "view",
      "type": "function"
    },
    {
      "inputs": [
        {
          "internalType": "bytes32",
          "name": "role",
          "type": "bytes32"
        },
        {
          "internalType": "address",
          "name": "account",
          "type": "address"
        }
      ],
      "name": "grantRole",
      "outputs": [],
      "stateMutability": "nonpayable",
      "type": "function"
    },
    {
      "inputs": [
        {
          "internalType": "bytes32",
          "name": "role",
          "type": "bytes32"
        },
        {
          "internalType": "address",
          "name": "account",
          "type": "address"
        }
      ],
      "name": "hasRole",
      "outputs": [
        {
          "internalType": "bool",
          "name": "",
          "type": "bool"
        }
      ],
      "stateMutability": "view",
      "type": "function"
    },
    {
      "inputs": [
        {
          "internalType": "address",
          "name": "account",
          "type": "address"
        },
        {
          "internalType": "address",
          "name": "operator",
          "type": "address"
        }
      ],
      "name": "isApprovedForAll",
      "outputs": [
        {
          "internalType": "bool",
          "name": "",
          "type": "bool"
        }
      ],
      "stateMutability": "view",
      "type": "function"
    },
    {
      "inputs": [
        {
          "internalType": "uint256",
          "name": "",
          "type": "uint256"
        }
      ],
      "name": "maxMintAmount",
      "outputs": [
        {
          "internalType": "uint256",
          "name": "",
          "type": "uint256"
        }
      ],
      "stateMutability": "view",
      "type": "function"
    },
    {
      "inputs": [
        {
          "internalType": "uint256",
          "name": "_id",
          "type": "uint256"
        },
        {
          "internalType": "bytes",
          "name": "data",
          "type": "bytes"
        },
        {
          "internalType": "uint8",
          "name": "_v",
          "type": "uint8"
        },
        {
          "internalType": "bytes32",
          "name": "_r",
          "type": "bytes32"
        },
        {
          "internalType": "bytes32",
          "name": "_s",
          "type": "bytes32"
        }
      ],
      "name": "mint",
      "outputs": [],
      "stateMutability": "nonpayable",
      "type": "function"
    },
    {
      "inputs": [
        {
          "internalType": "uint256",
          "name": "_id",
          "type": "uint256"
        },
        {
          "internalType": "bytes",
          "name": "data",
          "type": "bytes"
        }
      ],
      "name": "mint",
      "outputs": [],
      "stateMutability": "nonpayable",
      "type": "function"
    },
    {
      "inputs": [
        {
          "internalType": "address[]",
          "name": "addresses",
          "type": "address[]"
        },
        {
          "internalType": "uint256",
          "name": "_id",
          "type": "uint256"
        },
        {
          "internalType": "uint256",
          "name": "_amount",
          "type": "uint256"
        },
        {
          "internalType": "bytes",
          "name": "data",
          "type": "bytes"
        }
      ],
      "name": "mintBatch",
      "outputs": [],
      "stateMutability": "nonpayable",
      "type": "function"
    },
    {
      "inputs": [
        {
          "internalType": "address",
          "name": "user_add",
          "type": "address"
        },
        {
          "internalType": "uint256",
          "name": "_id",
          "type": "uint256"
        },
        {
          "internalType": "uint256",
          "name": "amount",
          "type": "uint256"
        },
        {
          "internalType": "bytes",
          "name": "data",
          "type": "bytes"
        }
      ],
      "name": "mintCapped",
      "outputs": [],
      "stateMutability": "nonpayable",
      "type": "function"
    },
    {
      "inputs": [
        {
          "internalType": "uint256",
          "name": "",
          "type": "uint256"
        }
      ],
      "name": "minted",
      "outputs": [
        {
          "internalType": "uint256",
          "name": "",
          "type": "uint256"
        }
      ],
      "stateMutability": "view",
      "type": "function"
    },
    {
      "inputs": [],
      "name": "name",
      "outputs": [
        {
          "internalType": "string",
          "name": "",
          "type": "string"
        }
      ],
      "stateMutability": "view",
      "type": "function"
    },
    {
      "inputs": [],
      "name": "owner",
      "outputs": [
        {
          "internalType": "address",
          "name": "",
          "type": "address"
        }
      ],
      "stateMutability": "view",
      "type": "function"
    },
    {
      "inputs": [
        {
          "internalType": "address[]",
          "name": "_users",
          "type": "address[]"
        },
        {
          "internalType": "uint256",
          "name": "_id",
          "type": "uint256"
        }
      ],
      "name": "removeWhitelistBatch",
      "outputs": [],
      "stateMutability": "nonpayable",
      "type": "function"
    },
    {
      "inputs": [
        {
          "internalType": "address",
          "name": "_user",
          "type": "address"
        },
        {
          "internalType": "uint256",
          "name": "_id",
          "type": "uint256"
        }
      ],
      "name": "removeWhitelistUser",
      "outputs": [],
      "stateMutability": "nonpayable",
      "type": "function"
    },
    {
      "inputs": [],
      "name": "renounceOwnership",
      "outputs": [],
      "stateMutability": "nonpayable",
      "type": "function"
    },
    {
      "inputs": [
        {
          "internalType": "bytes32",
          "name": "role",
          "type": "bytes32"
        },
        {
          "internalType": "address",
          "name": "account",
          "type": "address"
        }
      ],
      "name": "renounceRole",
      "outputs": [],
      "stateMutability": "nonpayable",
      "type": "function"
    },
    {
      "inputs": [
        {
          "internalType": "bytes32",
          "name": "role",
          "type": "bytes32"
        },
        {
          "internalType": "address",
          "name": "account",
          "type": "address"
        }
      ],
      "name": "revokeRole",
      "outputs": [],
      "stateMutability": "nonpayable",
      "type": "function"
    },
    {
      "inputs": [
        {
          "internalType": "address",
          "name": "from",
          "type": "address"
        },
        {
          "internalType": "address",
          "name": "to",
          "type": "address"
        },
        {
          "internalType": "uint256[]",
          "name": "ids",
          "type": "uint256[]"
        },
        {
          "internalType": "uint256[]",
          "name": "amounts",
          "type": "uint256[]"
        },
        {
          "internalType": "bytes",
          "name": "data",
          "type": "bytes"
        }
      ],
      "name": "safeBatchTransferFrom",
      "outputs": [],
      "stateMutability": "nonpayable",
      "type": "function"
    },
    {
      "inputs": [
        {
          "internalType": "address",
          "name": "from",
          "type": "address"
        },
        {
          "internalType": "address",
          "name": "to",
          "type": "address"
        },
        {
          "internalType": "uint256",
          "name": "id",
          "type": "uint256"
        },
        {
          "internalType": "uint256",
          "name": "amount",
          "type": "uint256"
        },
        {
          "internalType": "bytes",
          "name": "data",
          "type": "bytes"
        }
      ],
      "name": "safeTransferFrom",
      "outputs": [],
      "stateMutability": "nonpayable",
      "type": "function"
    },
    {
      "inputs": [
        {
          "internalType": "address",
          "name": "operator",
          "type": "address"
        },
        {
          "internalType": "bool",
          "name": "approved",
          "type": "bool"
        }
      ],
      "name": "setApprovalForAll",
      "outputs": [],
      "stateMutability": "nonpayable",
      "type": "function"
    },
    {
      "inputs": [
        {
          "internalType": "uint256",
          "name": "_id",
          "type": "uint256"
        },
        {
          "internalType": "uint256",
          "name": "newMaxAmount",
          "type": "uint256"
        }
      ],
      "name": "setMaxMintAmount",
      "outputs": [],
      "stateMutability": "nonpayable",
      "type": "function"
    },
    {
      "inputs": [
        {
          "internalType": "uint256",
          "name": "_id",
          "type": "uint256"
        },
        {
          "internalType": "uint256",
          "name": "supply",
          "type": "uint256"
        }
      ],
      "name": "setSupply",
      "outputs": [],
      "stateMutability": "nonpayable",
      "type": "function"
    },
    {
      "inputs": [
        {
          "internalType": "uint256",
          "name": "_id",
          "type": "uint256"
        },
        {
          "internalType": "string",
          "name": "_uri",
          "type": "string"
        }
      ],
      "name": "setURI",
      "outputs": [],
      "stateMutability": "nonpayable",
      "type": "function"
    },
    {
      "inputs": [
        {
          "internalType": "uint256",
          "name": "",
          "type": "uint256"
        }
      ],
      "name": "supplies",
      "outputs": [
        {
          "internalType": "uint256",
          "name": "",
          "type": "uint256"
        }
      ],
      "stateMutability": "view",
      "type": "function"
    },
    {
      "inputs": [
        {
          "internalType": "bytes4",
          "name": "interfaceId",
          "type": "bytes4"
        }
      ],
      "name": "supportsInterface",
      "outputs": [
        {
          "internalType": "bool",
          "name": "",
          "type": "bool"
        }
      ],
      "stateMutability": "view",
      "type": "function"
    },
    {
      "inputs": [],
      "name": "symbol",
      "outputs": [
        {
          "internalType": "string",
          "name": "",
          "type": "string"
        }
      ],
      "stateMutability": "view",
      "type": "function"
    },
    {
      "inputs": [
        {
          "internalType": "uint256",
          "name": "",
          "type": "uint256"
        }
      ],
      "name": "tokenURI",
      "outputs": [
        {
          "internalType": "string",
          "name": "",
          "type": "string"
        }
      ],
      "stateMutability": "view",
      "type": "function"
    },
    {
      "inputs": [
        {
          "internalType": "address",
          "name": "newOwner",
          "type": "address"
        }
      ],
      "name": "transferOwnership",
      "outputs": [],
      "stateMutability": "nonpayable",
      "type": "function"
    },
    {
      "inputs": [
        {
          "internalType": "uint256",
          "name": "_id",
          "type": "uint256"
        }
      ],
      "name": "uri",
      "outputs": [
        {
          "internalType": "string",
          "name": "",
          "type": "string"
        }
      ],
      "stateMutability": "view",
      "type": "function"
    },
    {
      "inputs": [
        {
          "internalType": "address",
          "name": "",
          "type": "address"
        },
        {
          "internalType": "uint256",
          "name": "",
          "type": "uint256"
        }
      ],
      "name": "usersMintedAmount",
      "outputs": [
        {
          "internalType": "uint256",
          "name": "",
          "type": "uint256"
        }
      ],
      "stateMutability": "view",
      "type": "function"
    },
    {
      "inputs": [
        {
          "internalType": "address",
          "name": "",
          "type": "address"
        },
        {
          "internalType": "uint256",
          "name": "",
          "type": "uint256"
        }
      ],
      "name": "usersSignatures",
      "outputs": [
        {
          "internalType": "bool",
          "name": "",
          "type": "bool"
        }
      ],
      "stateMutability": "view",
      "type": "function"
    },
    {
      "inputs": [
        {
          "internalType": "address",
          "name": "_add",
          "type": "address"
        },
        {
          "internalType": "uint256",
          "name": "_id",
          "type": "uint256"
        },
        {
          "internalType": "uint8",
          "name": "_v",
          "type": "uint8"
        },
        {
          "internalType": "bytes32",
          "name": "_r",
          "type": "bytes32"
        },
        {
          "internalType": "bytes32",
          "name": "_s",
          "type": "bytes32"
        }
      ],
      "name": "validateAccessMessage",
      "outputs": [
        {
          "internalType": "bool",
          "name": "",
          "type": "bool"
        }
      ],
      "stateMutability": "view",
      "type": "function"
    },
    {
      "inputs": [
        {
          "internalType": "address[]",
          "name": "_users",
          "type": "address[]"
        },
        {
          "internalType": "uint256",
          "name": "_id",
          "type": "uint256"
        }
      ],
      "name": "whitelistBatch",
      "outputs": [],
      "stateMutability": "nonpayable",
      "type": "function"
    },
    {
      "inputs": [
        {
          "internalType": "address",
          "name": "_user",
          "type": "address"
        },
        {
          "internalType": "uint256",
          "name": "_id",
          "type": "uint256"
        }
      ],
      "name": "whitelistUser",
      "outputs": [],
      "stateMutability": "nonpayable",
      "type": "function"
    },
    {
      "inputs": [
        {
          "internalType": "address",
          "name": "",
          "type": "address"
        },
        {
          "internalType": "uint256",
          "name": "",
          "type": "uint256"
        }
      ],
      "name": "whitelisted",
      "outputs": [
        {
          "internalType": "bool",
          "name": "",
          "type": "bool"
        }
      ],
      "stateMutability": "view",
      "type": "function"
    }
  ],
  "bytecode": "0x60806040523480156200001157600080fd5b5060405162003996380380620039968339810160408190526200003491620002ec565b6040805160208101909152600081526200004e8162000116565b506200005a3362000128565b600160055560066200006d8382620003e5565b5060076200007c8282620003e5565b506200008a6000336200017a565b620000b67f9f2df0fed2c77648de5860a4cc508cd0818c85b8b8a1ab4ceeef8d981c8956a6336200017a565b620000e27f4d642fe7c2362f43801aad3388d53222cb05266e9db057c7232d800231ec1f59336200017a565b6200010e7f8619cecd8b9e095ab43867f5b69d492180450fe862e6b50bfbfb24b75dd84c8a336200017a565b5050620004b1565b6002620001248282620003e5565b5050565b600480546001600160a01b038381166001600160a01b0319831681179093556040519116919082907f8be0079c531659141344cd1fd0a4f28419497f9722a3daafe3b4186f6b6457e090600090a35050565b60008281526003602090815260408083206001600160a01b038516845290915290205462000124908390839060ff16620001245760008281526003602090815260408083206001600160a01b03851684529091529020805460ff19166001179055620001e33390565b6001600160a01b0316816001600160a01b0316837f2f8788117e7eff1d82e926ec794901d17c78024a50270940304540a733656f0d60405160405180910390a45050565b634e487b7160e01b600052604160045260246000fd5b600082601f8301126200024f57600080fd5b81516001600160401b03808211156200026c576200026c62000227565b604051601f8301601f19908116603f0116810190828211818310171562000297576200029762000227565b81604052838152602092508683858801011115620002b457600080fd5b600091505b83821015620002d85785820183015181830184015290820190620002b9565b600093810190920192909252949350505050565b600080604083850312156200030057600080fd5b82516001600160401b03808211156200031857600080fd5b62000326868387016200023d565b935060208501519150808211156200033d57600080fd5b506200034c858286016200023d565b9150509250929050565b600181811c908216806200036b57607f821691505b6020821081036200038c57634e487b7160e01b600052602260045260246000fd5b50919050565b601f821115620003e057600081815260208120601f850160051c81016020861015620003bb5750805b601f850160051c820191505b81811015620003dc57828155600101620003c7565b5050505b505050565b81516001600160401b0381111562000401576200040162000227565b620004198162000412845462000356565b8462000392565b602080601f831160018114620004515760008415620004385750858301515b600019600386901b1c1916600185901b178555620003dc565b600085815260208120601f198616915b82811015620004825788860151825594840194600190910190840162000461565b5085821015620004a15787850151600019600388901b60f8161c191681555b5050505050600190811b01905550565b6134d580620004c16000396000f3fe608060405234801561001057600080fd5b506004361061020e5760003560e01c8062fdd58e1461021357806301ffc9a71461023957806306fdde031461025c5780630e89341c146102715780631b5ebd7214610284578063248a9ca3146102af57806326f1a1fd146102c25780632eb2c2d6146102e25780632f2ff15d146102f757806336568abe1461030a5780633f5ecdf11461031d578063461bd1d11461033d57806346e82811146103765780634e1273f414610389578063570618e1146103a95780635fe88ae3146103be5780636566d856146103d15780636c1cac4a146103ff5780636ced10bb1461042d5780636dfb38b914610440578063715018a6146104555780637dc0bf3f1461045d57806383ca4b6f1461047d578063862440e2146104905780638da5cb5b146104a3578063904868b2146104c357806391d14854146104d6578063925a8266146104e9578063957dd6a3146104fc57806395d89b411461050f578063a126ffc214610517578063a217fddf1461052a578063a22cb46514610532578063b14a328c14610545578063b390c0ab14610558578063c87b56dd1461056b578063d53913931461057e578063d547741f14610593578063d5ffe209146105a6578063db7fd408146105c6578063e054ffc3146105d9578063e985e9c5146105ec578063f242432a14610628578063f2fde38b1461063b578063fc784d491461064e575b600080fd5b6102266102213660046125ca565b610661565b6040519081526020015b60405180910390f35b61024c61024736600461260a565b6106fa565b6040519015158152602001610230565b610264610705565b6040516102309190612677565b61026461027f36600461268a565b610793565b6102266102923660046125ca565b600e60209081526000928352604080842090915290825290205481565b6102266102bd36600461268a565b610835565b6102266102d036600461268a565b60086020526000908152604090205481565b6102f56102f03660046127f6565b61084a565b005b6102f561030536600461289f565b610896565b6102f561031836600461289f565b6108b7565b61022661032b36600461268a565b600a6020526000908152604090205481565b61024c61034b3660046125ca565b6001600160a01b03919091166000908152600b60209081526040808320938352929052205460ff1690565b6102f5610384366004612938565b610935565b61039c61039736600461297c565b6109f1565b6040516102309190612a1a565b61022660008051602061346083398151915281565b6102f56103cc366004612a2d565b610b1a565b61024c6103df3660046125ca565b600d60209081526000928352604080842090915290825290205460ff1681565b61024c61040d3660046125ca565b600b60209081526000928352604080842090915290825290205460ff1681565b6102f561043b3660046125ca565b610e59565b61022660008051602061344083398151915281565b6102f5610eca565b61022661046b36600461268a565b60096020526000908152604090205481565b6102f561048b366004612a8d565b610ede565b6102f561049e366004612ac3565b610efb565b6104ab610f92565b6040516001600160a01b039091168152602001610230565b6102f56104d1366004612b13565b610fa1565b61024c6104e436600461289f565b61102b565b61024c6104f7366004612b8e565b611056565b6102f561050a366004612bdc565b611158565b61026461123e565b6102f5610525366004612938565b61124b565b610226600081565b6102f5610540366004612bfe565b6112fc565b6102f5610553366004612c3a565b611307565b6102f5610566366004612bdc565b611435565b61026461057936600461268a565b611448565b61022660008051602061348083398151915281565b6102f56105a136600461289f565b611461565b6102266105b436600461268a565b60009081526008602052604090205490565b6102f56105d4366004612c8a565b61147d565b6102f56105e73660046125ca565b6115a7565b61024c6105fa366004612cc6565b6001600160a01b03918216600090815260016020908152604080832093909416825291909152205460ff1690565b6102f5610636366004612cf0565b61161b565b6102f5610649366004612d54565b611660565b6102f561065c366004612bdc565b6116d9565b60006001600160a01b0383166106d15760405162461bcd60e51b815260206004820152602a60248201527f455243313135353a2061646472657373207a65726f206973206e6f742061207660448201526930b634b21037bbb732b960b11b60648201526084015b60405180910390fd5b506000818152602081815260408083206001600160a01b03861684529091529020545b92915050565b60006106f4826117bf565b6006805461071290612d6f565b80601f016020809104026020016040519081016040528092919081815260200182805461073e90612d6f565b801561078b5780601f106107605761010080835404028352916020019161078b565b820191906000526020600020905b81548152906001019060200180831161076e57829003601f168201915b505050505081565b6000818152600c602052604090208054606091906107b090612d6f565b80601f01602080910402602001604051908101604052809291908181526020018280546107dc90612d6f565b80156108295780601f106107fe57610100808354040283529160200191610829565b820191906000526020600020905b81548152906001019060200180831161080c57829003601f168201915b50505050509050919050565b60009081526003602052604090206001015490565b6001600160a01b038516331480610866575061086685336105fa565b6108825760405162461bcd60e51b81526004016106c890612da9565b61088f85858585856117e4565b5050505050565b61089f82610835565b6108a88161196e565b6108b28383611978565b505050565b6001600160a01b03811633146109275760405162461bcd60e51b815260206004820152602f60248201527f416363657373436f6e74726f6c3a2063616e206f6e6c792072656e6f756e636560448201526e103937b632b9903337b91039b2b63360891b60648201526084016106c8565b61093182826119fe565b5050565b61093d611a65565b6109556000805160206134608339815191523361102b565b6109715760405162461bcd60e51b81526004016106c890612df7565b60005b82518110156109e6576000600b600085848151811061099557610995612e3b565b6020908102919091018101516001600160a01b0316825281810192909252604090810160009081208682529092529020805460ff1916911515919091179055806109de81612e67565b915050610974565b506109316001600555565b60608151835114610a565760405162461bcd60e51b815260206004820152602960248201527f455243313135353a206163636f756e747320616e6420696473206c656e677468604482015268040dad2e6dac2e8c6d60bb1b60648201526084016106c8565b600083516001600160401b03811115610a7157610a716126a3565b604051908082528060200260200182016040528015610a9a578160200160208202803683370190505b50905060005b8451811015610b1257610ae5858281518110610abe57610abe612e3b565b6020026020010151858381518110610ad857610ad8612e3b565b6020026020010151610661565b828281518110610af757610af7612e3b565b6020908102919091010152610b0b81612e67565b9050610aa0565b509392505050565b610b22611a65565b610b3a6000805160206134408339815191523361102b565b610b565760405162461bcd60e51b81526004016106c890612e80565b60008211610bb15760405162461bcd60e51b815260206004820152602260248201527f5047455243313135353a20616d6f756e74206d757374206265206e6f6e2d7a65604482015261726f60f01b60648201526084016106c8565b6000838152600860205260408120549003610c0e5760405162461bcd60e51b815260206004820152601f60248201527f5047455243313135353a20746f6b656e20646f6573206e6f742065786973740060448201526064016106c8565b60008311610c5e5760405162461bcd60e51b815260206004820152601e60248201527f5047455243313135353a206964206d757374206265206e6f6e2d7a65726f000060448201526064016106c8565b600083815260086020908152604080832054600990925290912054610c84908490612ec6565b1115610cd05760405162461bcd60e51b815260206004820152601b60248201527a5047455243313135353a20657863656564696e6720737570706c7960281b60448201526064016106c8565b6000838152600a6020526040902054821115610d3e5760405162461bcd60e51b815260206004820152602760248201527f5047455243313135353a20616d6f756e742065786365656473206d61784d696e6044820152661d105b5bdd5b9d60ca1b60648201526084016106c8565b6000838152600a60209081526040808320546001600160a01b0388168452600e835281842087855290925290912054610d78908490612ec6565b1115610de15760405162461bcd60e51b815260206004820152603260248201527f5047455243313135353a20757365722063616e2774206d696e74206d6f7265206044820152711d1a185b881b585e135a5b9d105b5bdd5b9d60721b60648201526084016106c8565b6001600160a01b0384166000908152600e6020908152604080832086845290915281208054849290610e14908490612ec6565b909155505060008381526009602052604081208054849290610e37908490612ec6565b90915550610e49905084848484611abe565b610e536001600555565b50505050565b610e61611a65565b610e796000805160206134608339815191523361102b565b610e955760405162461bcd60e51b81526004016106c890612df7565b6001600160a01b0382166000908152600b602090815260408083208484529091529020805460ff191690556109316001600555565b610ed2611bc0565b610edc6000611c1f565b565b610ee6611a65565b610ef1338383611c71565b6109316001600555565b610f03611a65565b610f1b6000805160206134808339815191523361102b565b610f375760405162461bcd60e51b81526004016106c890612ed9565b6000828152600c60205260409020610f4f8282612f56565b50817f6bb7ff708619ba0610cba295a58592e0451dee2622938c8755667688daf3529b82604051610f809190612677565b60405180910390a26109316001600555565b6004546001600160a01b031690565b610fa9611a65565b610fc16000805160206134808339815191523361102b565b610fdd5760405162461bcd60e51b81526004016106c890612ed9565b60005b84518110156110205761100e858281518110610ffe57610ffe612e3b565b6020026020010151858585611abe565b8061101881612e67565b915050610fe0565b50610e536001600555565b60009182526003602090815260408084206001600160a01b0393909316845291905290205460ff1690565b60408051306020808301919091526001600160a01b038816828401526060808301889052835180840390910181526080830190935282519201919091207b0ca2ba3432b932bab69029b4b3b732b21026b2b9b9b0b3b29d05199960211b60a083015260bc8201819052600091829060019060dc0160408051601f198184030181528282528051602091820120600084529083018083525260ff891690820152606081018790526080810186905260a0016020604051602081039080840390855afa158015611128573d6000803e3d6000fd5b50505060206040510351905061114c6000805160206134608339815191528261102b565b98975050505050505050565b611160611a65565b6111786000805160206134408339815191523361102b565b6111945760405162461bcd60e51b81526004016106c890612e80565b60008281526008602052604090205481106112235760405162461bcd60e51b815260206004820152604360248201527f5047455243313135353a2063616e277420736574206d6178416d6f756e74207460448201527f6f2062652067726561746572207468616e2074686520656e7469726520737570606482015262706c7960e81b608482015260a4016106c8565b6000828152600a602052604090208190556109316001600555565b6007805461071290612d6f565b611253611a65565b61126b6000805160206134608339815191523361102b565b6112875760405162461bcd60e51b81526004016106c890612df7565b60005b82518110156109e6576001600b60008584815181106112ab576112ab612e3b565b6020908102919091018101516001600160a01b0316825281810192909252604090810160009081208682529092529020805460ff1916911515919091179055806112f481612e67565b91505061128a565b610931338383611de9565b61130f611a65565b336000908152600d6020908152604080832088845290915290205460ff16156113885760405162461bcd60e51b815260206004820152602560248201527f5047455243313135353a207369676e6174757265207573656420666f722074686044820152641a5cc81a5960da1b60648201526084016106c8565b6113953386858585611056565b6113d95760405162461bcd60e51b815260206004820152602160248201526000805160206134208339815191526044820152601960fa1b60648201526084016106c8565b336000818152600b602090815260408083208984528252808320805460ff19908116909155848452600d83528184208a85529092529091208054909116600190811790915561142b9190879087611abe565b61088f6001600555565b61143d611a65565b610ef1338383611ec9565b600c602052600090815260409020805461071290612d6f565b61146a82610835565b6114738161196e565b6108b283836119fe565b611485611a65565b336000908152600b6020908152604080832085845290915281205460ff16151590036114e4576114c36000805160206134808339815191523361102b565b6114df5760405162461bcd60e51b81526004016106c890612ed9565b611555565b336000908152600b6020908152604080832085845290915290205460ff1615156001146115555760405162461bcd60e51b815260206004820152602b602482015260008051602061342083398151915260448201526a32103337b9103a37b5b2b760a91b60648201526084016106c8565b336000818152600b602090815260408083208684528252808320805460ff19908116909155848452600d835281842087855290925290912080549091166001908117909155610ef19190849084611abe565b6115af611a65565b6115c76000805160206134608339815191523361102b565b6115e35760405162461bcd60e51b81526004016106c890612df7565b6001600160a01b0382166000908152600b602090815260408083208484529091529020805460ff191660011790556109316001600555565b6001600160a01b038516331480611637575061163785336105fa565b6116535760405162461bcd60e51b81526004016106c890612da9565b61088f8585858585611fbb565b611668611bc0565b6001600160a01b0381166116cd5760405162461bcd60e51b815260206004820152602660248201527f4f776e61626c653a206e6577206f776e657220697320746865207a65726f206160448201526564647265737360d01b60648201526084016106c8565b6116d681611c1f565b50565b6116e1611a65565b6116f96000805160206134808339815191523361102b565b6117155760405162461bcd60e51b81526004016106c890612ed9565b60008281526008602052604090205481116117a45760405162461bcd60e51b815260206004820152604360248201527f5047455243313135353a2063616e27742072656475636520737570706c79206260448201527f656361757365207468657265206d69676874206265206d696e74656420746f6b606482015262656e7360e81b608482015260a4016106c8565b60008281526008602052604090208190556109316001600555565b60006001600160e01b03198216637965db0b60e01b14806106f457506106f4826120d3565b81518351146118055760405162461bcd60e51b81526004016106c890613015565b6001600160a01b03841661182b5760405162461bcd60e51b81526004016106c89061305d565b3360005b845181101561191257600085828151811061184c5761184c612e3b565b60200260200101519050600085838151811061186a5761186a612e3b565b602090810291909101810151600084815280835260408082206001600160a01b038e1683529093529190912054909150818110156118ba5760405162461bcd60e51b81526004016106c8906130a2565b6000838152602081815260408083206001600160a01b038e8116855292528083208585039055908b168252812080548492906118f7908490612ec6565b925050819055505050508061190b90612e67565b905061182f565b50846001600160a01b0316866001600160a01b0316826001600160a01b03166000805160206133e083398151915287876040516119509291906130ec565b60405180910390a4611966818787878787612123565b505050505050565b6116d68133612285565b611982828261102b565b6109315760008281526003602090815260408083206001600160a01b03851684529091529020805460ff191660011790556119ba3390565b6001600160a01b0316816001600160a01b0316837f2f8788117e7eff1d82e926ec794901d17c78024a50270940304540a733656f0d60405160405180910390a45050565b611a08828261102b565b156109315760008281526003602090815260408083206001600160a01b0385168085529252808320805460ff1916905551339285917ff6391f5c32d9c69d2a47ea670b442974b53935d1edc7fd64eb21e047a839171b9190a45050565b600260055403611ab75760405162461bcd60e51b815260206004820152601f60248201527f5265656e7472616e637947756172643a207265656e7472616e742063616c6c0060448201526064016106c8565b6002600555565b6001600160a01b038416611b1e5760405162461bcd60e51b815260206004820152602160248201527f455243313135353a206d696e7420746f20746865207a65726f206164647265736044820152607360f81b60648201526084016106c8565b336000611b2a856122de565b90506000611b37856122de565b90506000868152602081815260408083206001600160a01b038b16845290915281208054879290611b69908490612ec6565b909155505060408051878152602081018790526001600160a01b03808a169260009291871691600080516020613400833981519152910160405180910390a4611bb783600089898989612329565b50505050505050565b33611bc9610f92565b6001600160a01b031614610edc5760405162461bcd60e51b815260206004820181905260248201527f4f776e61626c653a2063616c6c6572206973206e6f7420746865206f776e657260448201526064016106c8565b600480546001600160a01b038381166001600160a01b0319831681179093556040519116919082907f8be0079c531659141344cd1fd0a4f28419497f9722a3daafe3b4186f6b6457e090600090a35050565b6001600160a01b038316611c975760405162461bcd60e51b81526004016106c89061311a565b8051825114611cb85760405162461bcd60e51b81526004016106c890613015565b604080516020810190915260009081905233905b8351811015611d8e576000848281518110611ce957611ce9612e3b565b602002602001015190506000848381518110611d0757611d07612e3b565b602090810291909101810151600084815280835260408082206001600160a01b038c168352909352919091205490915081811015611d575760405162461bcd60e51b81526004016106c89061315d565b6000928352602083815260408085206001600160a01b038b1686529091529092209103905580611d8681612e67565b915050611ccc565b5060006001600160a01b0316846001600160a01b0316826001600160a01b03166000805160206133e08339815191528686604051611dcd9291906130ec565b60405180910390a4604080516020810190915260009052610e53565b816001600160a01b0316836001600160a01b031603611e5c5760405162461bcd60e51b815260206004820152602960248201527f455243313135353a2073657474696e6720617070726f76616c20737461747573604482015268103337b91039b2b63360b91b60648201526084016106c8565b6001600160a01b03838116600081815260016020908152604080832094871680845294825291829020805460ff191686151590811790915591519182527f17307eab39ab6107e8899845ad3d59bd9653f200f220920489ca2b5937696c31910160405180910390a3505050565b6001600160a01b038316611eef5760405162461bcd60e51b81526004016106c89061311a565b336000611efb846122de565b90506000611f08846122de565b60408051602080820183526000918290528882528181528282206001600160a01b038b1683529052205490915084811015611f555760405162461bcd60e51b81526004016106c89061315d565b6000868152602081815260408083206001600160a01b038b81168086529184528285208a8703905582518b81529384018a9052909290881691600080516020613400833981519152910160405180910390a4604080516020810190915260009052611bb7565b6001600160a01b038416611fe15760405162461bcd60e51b81526004016106c89061305d565b336000611fed856122de565b90506000611ffa856122de565b90506000868152602081815260408083206001600160a01b038c1684529091529020548581101561203d5760405162461bcd60e51b81526004016106c8906130a2565b6000878152602081815260408083206001600160a01b038d8116855292528083208985039055908a1682528120805488929061207a908490612ec6565b909155505060408051888152602081018890526001600160a01b03808b16928c82169291881691600080516020613400833981519152910160405180910390a46120c8848a8a8a8a8a612329565b505050505050505050565b60006001600160e01b03198216636cdb3d1360e11b148061210457506001600160e01b031982166303a24d0760e21b145b806106f457506301ffc9a760e01b6001600160e01b03198316146106f4565b612135846001600160a01b03166123eb565b156119665760405163bc197c8160e01b81526001600160a01b0385169063bc197c819061216e90899089908890889088906004016131a1565b6020604051808303816000875af19250505080156121a9575060408051601f3d908101601f191682019092526121a6918101906131f3565b60015b612255576121b5613210565b806308c379a0036121ee57506121c961322c565b806121d457506121f0565b8060405162461bcd60e51b81526004016106c89190612677565b505b60405162461bcd60e51b815260206004820152603460248201527f455243313135353a207472616e7366657220746f206e6f6e2d455243313135356044820152732932b1b2b4bb32b91034b6b83632b6b2b73a32b960611b60648201526084016106c8565b6001600160e01b0319811663bc197c8160e01b14611bb75760405162461bcd60e51b81526004016106c8906132b5565b61228f828261102b565b6109315761229c816123fa565b6122a783602061240c565b6040516020016122b89291906132fd565b60408051601f198184030181529082905262461bcd60e51b82526106c891600401612677565b6040805160018082528183019092526060916000919060208083019080368337019050509050828160008151811061231857612318612e3b565b602090810291909101015292915050565b61233b846001600160a01b03166123eb565b156119665760405163f23a6e6160e01b81526001600160a01b0385169063f23a6e6190612374908990899088908890889060040161336c565b6020604051808303816000875af19250505080156123af575060408051601f3d908101601f191682019092526123ac918101906131f3565b60015b6123bb576121b5613210565b6001600160e01b0319811663f23a6e6160e01b14611bb75760405162461bcd60e51b81526004016106c8906132b5565b6001600160a01b03163b151590565b60606106f46001600160a01b03831660145b6060600061241b8360026133b1565b612426906002612ec6565b6001600160401b0381111561243d5761243d6126a3565b6040519080825280601f01601f191660200182016040528015612467576020820181803683370190505b509050600360fc1b8160008151811061248257612482612e3b565b60200101906001600160f81b031916908160001a905350600f60fb1b816001815181106124b1576124b1612e3b565b60200101906001600160f81b031916908160001a90535060006124d58460026133b1565b6124e0906001612ec6565b90505b6001811115612558576f181899199a1a9b1b9c1cb0b131b232b360811b85600f166010811061251457612514612e3b565b1a60f81b82828151811061252a5761252a612e3b565b60200101906001600160f81b031916908160001a90535060049490941c93612551816133c8565b90506124e3565b5083156125a75760405162461bcd60e51b815260206004820181905260248201527f537472696e67733a20686578206c656e67746820696e73756666696369656e7460448201526064016106c8565b9392505050565b80356001600160a01b03811681146125c557600080fd5b919050565b600080604083850312156125dd57600080fd5b6125e6836125ae565b946020939093013593505050565b6001600160e01b0319811681146116d657600080fd5b60006020828403121561261c57600080fd5b81356125a7816125f4565b60005b8381101561264257818101518382015260200161262a565b50506000910152565b60008151808452612663816020860160208601612627565b601f01601f19169290920160200192915050565b6020815260006125a7602083018461264b565b60006020828403121561269c57600080fd5b5035919050565b634e487b7160e01b600052604160045260246000fd5b601f8201601f191681016001600160401b03811182821017156126de576126de6126a3565b6040525050565b60006001600160401b038211156126fe576126fe6126a3565b5060051b60200190565b600082601f83011261271957600080fd5b81356020612726826126e5565b60405161273382826126b9565b83815260059390931b850182019282810191508684111561275357600080fd5b8286015b8481101561276e5780358352918301918301612757565b509695505050505050565b60006001600160401b03831115612792576127926126a3565b6040516127a9601f8501601f1916602001826126b9565b8091508381528484840111156127be57600080fd5b83836020830137600060208583010152509392505050565b600082601f8301126127e757600080fd5b6125a783833560208501612779565b600080600080600060a0868803121561280e57600080fd5b612817866125ae565b9450612825602087016125ae565b935060408601356001600160401b038082111561284157600080fd5b61284d89838a01612708565b9450606088013591508082111561286357600080fd5b61286f89838a01612708565b9350608088013591508082111561288557600080fd5b50612892888289016127d6565b9150509295509295909350565b600080604083850312156128b257600080fd5b823591506128c2602084016125ae565b90509250929050565b600082601f8301126128dc57600080fd5b813560206128e9826126e5565b6040516128f682826126b9565b83815260059390931b850182019282810191508684111561291657600080fd5b8286015b8481101561276e5761292b816125ae565b835291830191830161291a565b6000806040838503121561294b57600080fd5b82356001600160401b0381111561296157600080fd5b61296d858286016128cb565b95602094909401359450505050565b6000806040838503121561298f57600080fd5b82356001600160401b03808211156129a657600080fd5b6129b2868387016128cb565b935060208501359150808211156129c857600080fd5b506129d585828601612708565b9150509250929050565b600081518084526020808501945080840160005b83811015612a0f578151875295820195908201906001016129f3565b509495945050505050565b6020815260006125a760208301846129df565b60008060008060808587031215612a4357600080fd5b612a4c856125ae565b9350602085013592506040850135915060608501356001600160401b03811115612a7557600080fd5b612a81878288016127d6565b91505092959194509250565b60008060408385031215612aa057600080fd5b82356001600160401b0380821115612ab757600080fd5b6129b286838701612708565b60008060408385031215612ad657600080fd5b8235915060208301356001600160401b03811115612af357600080fd5b8301601f81018513612b0457600080fd5b6129d585823560208401612779565b60008060008060808587031215612b2957600080fd5b84356001600160401b0380821115612b4057600080fd5b612b4c888389016128cb565b955060208701359450604087013593506060870135915080821115612b7057600080fd5b50612a81878288016127d6565b803560ff811681146125c557600080fd5b600080600080600060a08688031215612ba657600080fd5b612baf866125ae565b945060208601359350612bc460408701612b7d565b94979396509394606081013594506080013592915050565b60008060408385031215612bef57600080fd5b50508035926020909101359150565b60008060408385031215612c1157600080fd5b612c1a836125ae565b915060208301358015158114612c2f57600080fd5b809150509250929050565b600080600080600060a08688031215612c5257600080fd5b8535945060208601356001600160401b03811115612c6f57600080fd5b612c7b888289016127d6565b945050612bc460408701612b7d565b60008060408385031215612c9d57600080fd5b8235915060208301356001600160401b03811115612cba57600080fd5b6129d5858286016127d6565b60008060408385031215612cd957600080fd5b612ce2836125ae565b91506128c2602084016125ae565b600080600080600060a08688031215612d0857600080fd5b612d11866125ae565b9450612d1f602087016125ae565b9350604086013592506060860135915060808601356001600160401b03811115612d4857600080fd5b612892888289016127d6565b600060208284031215612d6657600080fd5b6125a7826125ae565b600181811c90821680612d8357607f821691505b602082108103612da357634e487b7160e01b600052602260045260246000fd5b50919050565b6020808252602e908201527f455243313135353a2063616c6c6572206973206e6f7420746f6b656e206f776e60408201526d195c881bdc88185c1c1c9bdd995960921b606082015260800190565b60208082526024908201527f5047455243313135353a2057484954454c49535445525f524f4c4520726571756040820152631a5c995960e21b606082015260800190565b634e487b7160e01b600052603260045260246000fd5b634e487b7160e01b600052601160045260246000fd5b600060018201612e7957612e79612e51565b5060010190565b60208082526026908201527f5047455243313135353a204d494e5445525f4341505045445f524f4c452072656040820152651c5d5a5c995960d21b606082015260800190565b808201808211156106f4576106f4612e51565b6020808252601f908201527f5047455243313135353a204d494e5445525f524f4c4520726571756972656400604082015260600190565b601f8211156108b257600081815260208120601f850160051c81016020861015612f375750805b601f850160051c820191505b8181101561196657828155600101612f43565b81516001600160401b03811115612f6f57612f6f6126a3565b612f8381612f7d8454612d6f565b84612f10565b602080601f831160018114612fb85760008415612fa05750858301515b600019600386901b1c1916600185901b178555611966565b600085815260208120601f198616915b82811015612fe757888601518255948401946001909101908401612fc8565b50858210156130055787850151600019600388901b60f8161c191681555b5050505050600190811b01905550565b60208082526028908201527f455243313135353a2069647320616e6420616d6f756e7473206c656e677468206040820152670dad2e6dac2e8c6d60c31b606082015260800190565b60208082526025908201527f455243313135353a207472616e7366657220746f20746865207a65726f206164604082015264647265737360d81b606082015260800190565b6020808252602a908201527f455243313135353a20696e73756666696369656e742062616c616e636520666f60408201526939103a3930b739b332b960b11b606082015260800190565b6040815260006130ff60408301856129df565b828103602084015261311181856129df565b95945050505050565b60208082526023908201527f455243313135353a206275726e2066726f6d20746865207a65726f206164647260408201526265737360e81b606082015260800190565b60208082526024908201527f455243313135353a206275726e20616d6f756e7420657863656564732062616c604082015263616e636560e01b606082015260800190565b6001600160a01b0386811682528516602082015260a0604082018190526000906131cd908301866129df565b82810360608401526131df81866129df565b9050828103608084015261114c818561264b565b60006020828403121561320557600080fd5b81516125a7816125f4565b600060033d11156132295760046000803e5060005160e01c5b90565b600060443d101561323a5790565b6040516003193d81016004833e81513d6001600160401b03808311602484018310171561326957505050505090565b82850191508151818111156132815750505050505090565b843d870101602082850101111561329b5750505050505090565b6132aa602082860101876126b9565b509095945050505050565b60208082526028908201527f455243313135353a204552433131353552656365697665722072656a656374656040820152676420746f6b656e7360c01b606082015260800190565b76020b1b1b2b9b9a1b7b73a3937b61d1030b1b1b7bab73a1604d1b81526000835161332f816017850160208801612627565b7001034b99036b4b9b9b4b733903937b6329607d1b6017918401918201528351613360816028840160208801612627565b01602801949350505050565b6001600160a01b03868116825285166020820152604081018490526060810183905260a0608082018190526000906133a69083018461264b565b979650505050505050565b80820281158282048414176106f4576106f4612e51565b6000816133d7576133d7612e51565b50600019019056fe4a39dc06d4c0dbc64b70af90fd698a233a518aa5d07e595d983b8c0526c8f7fbc3d58168c5ae7397731d063d5bbf3d657854427343f4c083240f7aacaa2d0f625047455243313135353a2073656e646572206e6f742077686974656c697374654d642fe7c2362f43801aad3388d53222cb05266e9db057c7232d800231ec1f598619cecd8b9e095ab43867f5b69d492180450fe862e6b50bfbfb24b75dd84c8a9f2df0fed2c77648de5860a4cc508cd0818c85b8b8a1ab4ceeef8d981c8956a6a26469706673582212203170c9187d3c0dadfb3dd0acc5be02f1187d05cccb1673edd6b8091f1e7374f264736f6c63430008110033",
  "linkReferences": {},
  "deployedLinkReferences": {}
}